{
  "utils": {
    "entropy's": [
      {
        "length": 32,
        "strength": 128,
        "entropy": "2c092549a74b66e59d0759ae10449e21"
      },
      {
        "length": 40,
        "strength": 160,
        "entropy": "3cc90cb4cd18e4924c5dde0bd7e067e474685af0"
      },
      {
        "length": 48,
        "strength": 192,
        "entropy": "dc0f65e6b0776d03f6b0f60a1961f9c821dc6cc12e015e67"
      },
      {
        "length": 56,
        "strength": 224,
        "entropy": "fe919b9dfe1d8cce1ad041ec1d879d359bd25ee1391b6ab47ddbd1c4"
      },
      {
        "length": 64,
        "strength": 256,
        "entropy": "794ce74ecb529a94feb270dc095cf4f6aa791dbdd9831402fac02ada9f6a003d"
      }
    ],
    "mnemonics": [
      {
        "strength": 128,
        "language": "english",
        "mnemonic": "essay mammal later conduct cinnamon bunker target flower gold you report auto",
        "words": 12
      },
      {
        "strength": 160,
        "language": "chinese_simplified",
        "mnemonic": "散 残 争 坯 抗 泽 决 党 估 沈 插 系 货 麻 陈",
        "words": 15
      },
      {
        "strength": 192,
        "language": "french",
        "mnemonic": "demander émouvoir séance plaisir vernir luron élaborer nerveux fourmi courage viaduc persil innocent sternum fugitif jardin franchir indice",
        "words": 18
      },
      {
        "strength": 224,
        "language": "italian",
        "mnemonic": "umorismo terzetto trattato nebulosa serata anca pezzo debutto regalato luppolo arabica cuculo falco sradicare bibita parola oggetto salasso gazebo pertugio bibita",
        "words": 21
      },
      {
        "strength": 256,
        "language": "japanese",
        "mnemonic": "おくる きそう おとしもの きけんせい よそう さこく きはく てまえ えいご えんぜつ あつまり めいさい しのぐ さくら こんすい せんやく あおぞら せっぱん きうん さとおや すんぽう ないこう だっきゃく たよる",
        "words": 24
      },
      {
        "strength": 160,
        "language": "chinese_traditional",
        "mnemonic": "枝 走 翻 巧 棋 核 溝 悟 庭 抬 毅 際 姆 林 拔",
        "words": 15
      },
      {
        "strength": 192,
        "language": "korean",
        "mnemonic": "부문 친척 간부 금요일 행운 수동적 차림 증세 정지 책임 그날 표면 망원경 넷째 비빔밥 고장 강당 냉장고",
        "words": 18
      },
      {
        "strength": 224,
        "language": "spanish",
        "mnemonic": "mamá odisea flecha oído queja recurso cárcel lacra curva ancla olla fresa espada olvido tractor asegurar hombre pausa marrón carpeta arder",
        "words": 21
      }
    ]
  },
  "wallet": {
    "strength": 160,
    "entropy": "915063bf89c24d894215695b2a27a0990b2fee2c",
    "mnemonic": "열쇠 아직 한글 관광 날개 주머니 건물 일찍 비바람 보관 평가 대형 잠자리 현지 장기간",
    "language": "korean",
    "passphrase": null,
    "seed": "2a07bafbe8293637db171afe8b9fdfa3028f53c92f32343fdc62c81d62a89e5c2b59e2901b5a9f4c01939a279cc4286a2bd1612fad099e89754d4a93777c0aa7",
    "root_xprivate_key": "xprv9s21ZrQH143K2HGD7u7dFN5Z3jPSLRSAY2dxggQjiDKfQSuh1zeVMD2uwqfSw86qfBUsmq8ppe72VSH4aFCCHJ33dyCXGHTSTTLNRbsnAiL",
    "root_xprivate_key_hex": "0488ade400000000000000000016598891f1403573c72f3659d99d1be8eca476dad5095adfb6c9a9da405777db00c53cc85f0a788fa19f85eee2d3d383b9e495a059646bb4373d53f0c8747e1550",
    "root_xpublic_key": "xpub661MyMwAqRbcEmLgDvedcW2HbmDvjtA1uFZZV4pMGYreHFEqZXxju1MPo8PUBRRA9mMbbMfctiMNqfmN5ZUuQwczJJHmUi61r17c41yTnjX",
    "root_xpublic_key_hex": "0488b21e00000000000000000016598891f1403573c72f3659d99d1be8eca476dad5095adfb6c9a9da405777db03a45686f24d36298fb6a2c4da77b8d93e089d529e49fc14742edf8b29f09be9eb",
    "xprivate_key": "xprvA3EQ3FPUuR4iLzWgLWs1ob2ZqjbpwXbAvtrrdf9XNHixPtwiTHgCjehn5eunbdvmVohf3GdAgHG2HLfRNuzHRYPngJjQEUNsGrLM51xY4br",
    "xprivate_key_hex": "0488ade4056d916b9400000000aea0ba732a351b4481d023caaf0d8ca258dceeb4415612c6df751d40d240f07200856719d78f4d061bd57361efdaffbcd941d0370a9012a4b53b0ecc158e83279a",
    "xpublic_key": "xpub6GDkSkvNjnd1ZUb9SYQ2AiyJPmSKLzK2J7nTS3Z8vdFwGhGrzpzTHT2FvwacvUZDPoaqPQvLAaeTnvyBbNsxCNJwZJPPM1VNHbG654aWi9w",
    "xpublic_key_hex": "0488b21e056d916b9400000000aea0ba732a351b4481d023caaf0d8ca258dceeb4415612c6df751d40d240f072035d438c9c6f38cec745a3657531925467fad1cd8e75861e0fd9122b345b1b8681",
    "uncompressed": "5d438c9c6f38cec745a3657531925467fad1cd8e75861e0fd9122b345b1b8681f965b9c90c02c5d7f7c3d1967341991df943618e0875ac18248febf62be23997",
    "compressed": "035d438c9c6f38cec745a3657531925467fad1cd8e75861e0fd9122b345b1b8681",
    "chain_code": "aea0ba732a351b4481d023caaf0d8ca258dceeb4415612c6df751d40d240f072",
    "private_key": "856719d78f4d061bd57361efdaffbcd941d0370a9012a4b53b0ecc158e83279a",
    "public_key": "035d438c9c6f38cec745a3657531925467fad1cd8e75861e0fd9122b345b1b8681",
    "wif": "L1h2bhL4hUyj63467FnSDovfL8jfu7YT3Jp1AFMoA69HXmYrKW9D",
    "finger_print": "27cb1d48",
    "semantic": "p2pkh",
    "path": "m/44'/550'/0'/0/0",
    "hash": "27cb1d485bcfe211a0078d54274056d59015d2b7",
    "address_xdc": "xdcAF78a3fc5FEf31F374910873D9A8fc70d2F193f8",
    "address_0x": "0xAF78a3fc5FEf31F374910873D9A8fc70d2F193f8"
  },
  "transaction": {
    "contract_transaction": {
      "fee": 445476,
      "hash": "0x19ade964a57fa3eb902030f4131fa2684cc3786339960825fdf686a9a8a31d5c",
      "raw": "0xf9070201840ee6b2808306cc248080b906b0608060405234801561001057600080fd5b506040518060400160405280600581526020017f48656c6c6f0000000000000000000000000000000000000000000000000000008152506000908051906020019061005c929190610062565b50610166565b82805461006e90610105565b90600052602060002090601f01602090048101928261009057600085556100d7565b82601f106100a957805160ff19168380011785556100d7565b828001600101855582156100d7579182015b828111156100d65782518255916020019190600101906100bb565b5b5090506100e491906100e8565b5090565b5b808211156101015760008160009055506001016100e9565b5090565b6000600282049050600182168061011d57607f821691505b6020821081141561013157610130610137565b5b50919050565b7f4e487b7100000000000000000000000000000000000000000000000000000000600052602260045260246000fd5b61053b806101756000396000f3fe608060405234801561001057600080fd5b50600436106100415760003560e01c8063a413686214610046578063cfae321714610062578063ef690cc014610080575b600080fd5b610060600480360381019061005b91906102e3565b61009e565b005b61006a6100b8565b604051610077919061035d565b60405180910390f35b61008861014a565b604051610095919061035d565b60405180910390f35b80600090805190602001906100b49291906101d8565b5050565b6060600080546100c790610433565b80601f01602080910402602001604051908101604052809291908181526020018280546100f390610433565b80156101405780601f1061011557610100808354040283529160200191610140565b820191906000526020600020905b81548152906001019060200180831161012357829003601f168201915b5050505050905090565b6000805461015790610433565b80601f016020809104026020016040519081016040528092919081815260200182805461018390610433565b80156101d05780601f106101a5576101008083540402835291602001916101d0565b820191906000526020600020905b8154815290600101906020018083116101b357829003601f168201915b505050505081565b8280546101e490610433565b90600052602060002090601f016020900481019282610206576000855561024d565b82601f1061021f57805160ff191683800117855561024d565b8280016001018555821561024d579182015b8281111561024c578251825591602001919060010190610231565b5b50905061025a919061025e565b5090565b5b8082111561027757600081600090555060010161025f565b5090565b600061028e610289846103a4565b61037f565b9050828152602081018484840111156102a657600080fd5b6102b18482856103f1565b509392505050565b600082601f8301126102ca57600080fd5b81356102da84826020860161027b565b91505092915050565b6000602082840312156102f557600080fd5b600082013567ffffffffffffffff81111561030f57600080fd5b61031b848285016102b9565b91505092915050565b600061032f826103d5565b61033981856103e0565b9350610349818560208601610400565b610352816104f4565b840191505092915050565b600060208201905081810360008301526103778184610324565b905092915050565b600061038961039a565b90506103958282610465565b919050565b6000604051905090565b600067ffffffffffffffff8211156103bf576103be6104c5565b5b6103c8826104f4565b9050602081019050919050565b600081519050919050565b600082825260208201905092915050565b82818337600083830152505050565b60005b8381101561041e578082015181840152602081019050610403565b8381111561042d576000848401525b50505050565b6000600282049050600182168061044b57607f821691505b6020821081141561045f5761045e610496565b5b50919050565b61046e826104f4565b810181811067ffffffffffffffff8211171561048d5761048c6104c5565b5b80604052505050565b7f4e487b7100000000000000000000000000000000000000000000000000000000600052602260045260246000fd5b7f4e487b7100000000000000000000000000000000000000000000000000000000600052604160045260246000fd5b6000601f19601f830116905091905056fea264697066735822122002786b5114bea14354170503b8bffe80a17bb5e4610cb41deca549935965f30864736f6c634300080300331ca0cff26b7a94934f3ad6a8b47c851a01e994dde36d9196b3c929a37c87e069dc2ea00599f774942a4b602e47ff18a302ebb6249e5320664da8dcbf64b02cc8b38579",
      "json": {
        "hash": "0x19ade964a57fa3eb902030f4131fa2684cc3786339960825fdf686a9a8a31d5c",
        "from": "0xAF78a3fc5FEf31F374910873D9A8fc70d2F193f8",
        "to": null,
        "nonce": 1,
        "gas": 445476,
        "gas_price": 250000000,
        "value": 0,
        "data": "0x608060405234801561001057600080fd5b506040518060400160405280600581526020017f48656c6c6f0000000000000000000000000000000000000000000000000000008152506000908051906020019061005c929190610062565b50610166565b82805461006e90610105565b90600052602060002090601f01602090048101928261009057600085556100d7565b82601f106100a957805160ff19168380011785556100d7565b828001600101855582156100d7579182015b828111156100d65782518255916020019190600101906100bb565b5b5090506100e491906100e8565b5090565b5b808211156101015760008160009055506001016100e9565b5090565b6000600282049050600182168061011d57607f821691505b6020821081141561013157610130610137565b5b50919050565b7f4e487b7100000000000000000000000000000000000000000000000000000000600052602260045260246000fd5b61053b806101756000396000f3fe608060405234801561001057600080fd5b50600436106100415760003560e01c8063a413686214610046578063cfae321714610062578063ef690cc014610080575b600080fd5b610060600480360381019061005b91906102e3565b61009e565b005b61006a6100b8565b604051610077919061035d565b60405180910390f35b61008861014a565b604051610095919061035d565b60405180910390f35b80600090805190602001906100b49291906101d8565b5050565b6060600080546100c790610433565b80601f01602080910402602001604051908101604052809291908181526020018280546100f390610433565b80156101405780601f1061011557610100808354040283529160200191610140565b820191906000526020600020905b81548152906001019060200180831161012357829003601f168201915b5050505050905090565b6000805461015790610433565b80601f016020809104026020016040519081016040528092919081815260200182805461018390610433565b80156101d05780601f106101a5576101008083540402835291602001916101d0565b820191906000526020600020905b8154815290600101906020018083116101b357829003601f168201915b505050505081565b8280546101e490610433565b90600052602060002090601f016020900481019282610206576000855561024d565b82601f1061021f57805160ff191683800117855561024d565b8280016001018555821561024d579182015b8281111561024c578251825591602001919060010190610231565b5b50905061025a919061025e565b5090565b5b8082111561027757600081600090555060010161025f565b5090565b600061028e610289846103a4565b61037f565b9050828152602081018484840111156102a657600080fd5b6102b18482856103f1565b509392505050565b600082601f8301126102ca57600080fd5b81356102da84826020860161027b565b91505092915050565b6000602082840312156102f557600080fd5b600082013567ffffffffffffffff81111561030f57600080fd5b61031b848285016102b9565b91505092915050565b600061032f826103d5565b61033981856103e0565b9350610349818560208601610400565b610352816104f4565b840191505092915050565b600060208201905081810360008301526103778184610324565b905092915050565b600061038961039a565b90506103958282610465565b919050565b6000604051905090565b600067ffffffffffffffff8211156103bf576103be6104c5565b5b6103c8826104f4565b9050602081019050919050565b600081519050919050565b600082825260208201905092915050565b82818337600083830152505050565b60005b8381101561041e578082015181840152602081019050610403565b8381111561042d576000848401525b50505050565b6000600282049050600182168061044b57607f821691505b6020821081141561045f5761045e610496565b5b50919050565b61046e826104f4565b810181811067ffffffffffffffff8211171561048d5761048c6104c5565b5b80604052505050565b7f4e487b7100000000000000000000000000000000000000000000000000000000600052602260045260246000fd5b7f4e487b7100000000000000000000000000000000000000000000000000000000600052604160045260246000fd5b6000601f19601f830116905091905056fea264697066735822122002786b5114bea14354170503b8bffe80a17bb5e4610cb41deca549935965f30864736f6c63430008030033",
        "chain_id": -4,
        "r": "0xcff26b7a94934f3ad6a8b47c851a01e994dde36d9196b3c929a37c87e069dc2e",
        "s": "0x599f774942a4b602e47ff18a302ebb6249e5320664da8dcbf64b02cc8b38579",
        "v": 28
      }
    },
    "normal_transaction": {
      "fee": 21000,
      "hash": "0x434f42b5d596a16abf33446ba666b11806af9106dc018925430840c6c5458068",
      "raw": "0xf86b01840ee6b280825208949cd6fd3519b259b251d881361caae6babdc5910b88016345785d8a0000801ca0708b3a8b059ced87cdb7ea15bf164d0ba7240e305da3c476fac3799cb71cfebda015b932428dd4891f1370f14f1694fdcab030b4efe9eba2d5a29e96db9e26fd1f",
      "json": {
          "hash": "0x434f42b5d596a16abf33446ba666b11806af9106dc018925430840c6c5458068",
          "from": "0xAF78a3fc5FEf31F374910873D9A8fc70d2F193f8",
          "to": "0x9Cd6fD3519b259B251d881361CAae6BABdC5910b",
          "nonce": 1,
          "gas": 21000,
          "gas_price": 250000000,
          "value": 100000000000000000,
          "data": "0x",
          "chain_id": -4,
          "r": "0x708b3a8b059ced87cdb7ea15bf164d0ba7240e305da3c476fac3799cb71cfebd",
          "s": "0x15b932428dd4891f1370f14f1694fdcab030b4efe9eba2d5a29e96db9e26fd1f",
          "v": 28
      }
    }
  }
}